{
  "contractName": "FundRaising",
  "abi": [
    {
      "inputs": [
        {
          "internalType": "uint256",
          "name": "percent",
          "type": "uint256"
        }
      ],
      "stateMutability": "nonpayable",
      "type": "constructor"
    },
    {
      "anonymous": false,
      "inputs": [
        {
          "indexed": true,
          "internalType": "address",
          "name": "sender",
          "type": "address"
        },
        {
          "indexed": false,
          "internalType": "address",
          "name": "to",
          "type": "address"
        },
        {
          "indexed": false,
          "internalType": "uint256",
          "name": "amount",
          "type": "uint256"
        }
      ],
      "name": "Contributed",
      "type": "event"
    },
    {
      "anonymous": false,
      "inputs": [
        {
          "indexed": true,
          "internalType": "address",
          "name": "sender",
          "type": "address"
        },
        {
          "indexed": false,
          "internalType": "uint256",
          "name": "id",
          "type": "uint256"
        },
        {
          "indexed": false,
          "internalType": "uint256",
          "name": "fund",
          "type": "uint256"
        },
        {
          "indexed": false,
          "internalType": "string",
          "name": "purpose",
          "type": "string"
        }
      ],
      "name": "FundRaiserAdded",
      "type": "event"
    },
    {
      "inputs": [
        {
          "internalType": "address",
          "name": "",
          "type": "address"
        }
      ],
      "name": "exists",
      "outputs": [
        {
          "internalType": "bool",
          "name": "",
          "type": "bool"
        }
      ],
      "stateMutability": "view",
      "type": "function",
      "constant": true
    },
    {
      "inputs": [],
      "name": "feeBank",
      "outputs": [
        {
          "internalType": "address payable",
          "name": "",
          "type": "address"
        }
      ],
      "stateMutability": "view",
      "type": "function",
      "constant": true
    },
    {
      "inputs": [],
      "name": "fundRaiserId",
      "outputs": [
        {
          "internalType": "uint256",
          "name": "",
          "type": "uint256"
        }
      ],
      "stateMutability": "view",
      "type": "function",
      "constant": true
    },
    {
      "inputs": [
        {
          "internalType": "uint256",
          "name": "",
          "type": "uint256"
        }
      ],
      "name": "fundRaisers",
      "outputs": [
        {
          "internalType": "address payable",
          "name": "adress",
          "type": "address"
        },
        {
          "internalType": "uint256",
          "name": "votes",
          "type": "uint256"
        },
        {
          "internalType": "string",
          "name": "purpose",
          "type": "string"
        },
        {
          "internalType": "uint256",
          "name": "initialAmount",
          "type": "uint256"
        },
        {
          "internalType": "int256",
          "name": "fundLeft",
          "type": "int256"
        },
        {
          "internalType": "uint256",
          "name": "projectsFunded",
          "type": "uint256"
        }
      ],
      "stateMutability": "view",
      "type": "function",
      "constant": true
    },
    {
      "inputs": [
        {
          "internalType": "address",
          "name": "",
          "type": "address"
        }
      ],
      "name": "lookUpId",
      "outputs": [
        {
          "internalType": "uint256",
          "name": "",
          "type": "uint256"
        }
      ],
      "stateMutability": "view",
      "type": "function",
      "constant": true
    },
    {
      "inputs": [],
      "name": "percentage",
      "outputs": [
        {
          "internalType": "uint256",
          "name": "",
          "type": "uint256"
        }
      ],
      "stateMutability": "view",
      "type": "function",
      "constant": true
    },
    {
      "inputs": [
        {
          "internalType": "uint256",
          "name": "fund",
          "type": "uint256"
        },
        {
          "internalType": "string",
          "name": "purpose",
          "type": "string"
        }
      ],
      "name": "addFundRaiser",
      "outputs": [],
      "stateMutability": "nonpayable",
      "type": "function"
    },
    {
      "inputs": [
        {
          "internalType": "uint256",
          "name": "id",
          "type": "uint256"
        }
      ],
      "name": "vote",
      "outputs": [],
      "stateMutability": "nonpayable",
      "type": "function"
    },
    {
      "inputs": [
        {
          "internalType": "uint256",
          "name": "id",
          "type": "uint256"
        }
      ],
      "name": "contribute",
      "outputs": [],
      "stateMutability": "payable",
      "type": "function",
      "payable": true
    },
    {
      "inputs": [
        {
          "internalType": "uint256",
          "name": "amt",
          "type": "uint256"
        }
      ],
      "name": "calculateBankFee",
      "outputs": [
        {
          "internalType": "uint256",
          "name": "",
          "type": "uint256"
        }
      ],
      "stateMutability": "view",
      "type": "function",
      "constant": true
    }
  ],
  "bytecode": "0x608060405234801561001057600080fd5b50604051610bd4380380610bd483398101604081905261002f91610049565b600155600280546001600160a01b03191633179055610062565b60006020828403121561005b57600080fd5b5051919050565b610b63806100716000396000f3fe6080604052600436106100915760003560e01c8063af15d78611610059578063af15d7861461016a578063c12bf893146101a2578063c1cbbca7146101b8578063c78ad77f146101cb578063f6a3d24e146101e157600080fd5b80630121b93f146100965780634d66e031146100b857806363299737146100d857806370eec57c1461010b578063738c8f351461013d575b600080fd5b3480156100a257600080fd5b506100b66100b1366004610841565b610221565b005b3480156100c457600080fd5b506100b66100d3366004610870565b61033b565b3480156100e457600080fd5b506100f86100f3366004610841565b6104aa565b6040519081526020015b60405180910390f35b34801561011757600080fd5b5061012b610126366004610841565b6104cc565b60405161010296959493929190610978565b34801561014957600080fd5b506100f86101583660046109bd565b60056020526000908152604090205481565b34801561017657600080fd5b5060025461018a906001600160a01b031681565b6040516001600160a01b039091168152602001610102565b3480156101ae57600080fd5b506100f860005481565b6100b66101c6366004610841565b610593565b3480156101d757600080fd5b506100f860015481565b3480156101ed57600080fd5b506102116101fc3660046109bd565b60046020526000908152604090205460ff1681565b6040519015158152602001610102565b6000818152600360209081526040808320338452600681019092529091205460ff161561028d5760405162461bcd60e51b8152602060048201526015602482015274596f752063616e6e6f7420766f746520747769636560581b60448201526064015b60405180910390fd5b60005482111580156102b8575080546001600160a01b031660009081526004602052604090205460ff165b6103045760405162461bcd60e51b815260206004820152601a60248201527f46756e642052616973657220646f6573206e6f742065786973740000000000006044820152606401610284565b60018101805490600061031683610a03565b9091555050336000908152600690910160205260409020805460ff1916600117905550565b3360009081526004602052604090205460ff161561039b5760405162461bcd60e51b815260206004820152601a60248201527f46756e642052616973657220616c7265616479206578697374730000000000006044820152606401610284565b3360009081526005602052604081205481036103e0576000805490806103c083610a03565b9091555050600080543382526005602052604090912081905590506103f2565b50336000908152600560205260409020545b60008181526003602090815260408220600581015481546001600160a01b031916331782556001820193909355845190916104349160028401918701906107a8565b5060038101859055600480820186905560058201839055336000818152602092909252604091829020805460ff1916600117905590517ffeddf9f36bf7ad45bb44745c1c6d07bc7ad7d3286f871af4815bf35f3f3968b89061049b90869089908990610a1c565b60405180910390a25050505050565b60006064600154836104bc9190610a44565b6104c69190610a63565b92915050565b6003602052600090815260409020805460018201546002830180546001600160a01b039093169391926104fe90610a85565b80601f016020809104026020016040519081016040528092919081815260200182805461052a90610a85565b80156105775780601f1061054c57610100808354040283529160200191610577565b820191906000526020600020905b81548152906001019060200180831161055a57829003601f168201915b5050505050908060030154908060040154908060050154905086565b600081815260036020908152604080832080546001600160a01b0316845260049092529091205460ff166106095760405162461bcd60e51b815260206004820152601f60248201527f546869732066756e642072616973657220646f6573206e6f74206578697374006044820152606401610284565b600034116106685760405162461bcd60e51b815260206004820152602660248201527f436f6e747269627574696f6e206d7573742062652067726561746572207468616044820152656e207a65726f60d01b6064820152608401610284565b346000610674826104aa565b6002546040519192506001600160a01b03169082156108fc029083906000818181858888f193505050501580156106af573d6000803e3d6000fd5b5082546001600160a01b03166108fc6106c88385610abf565b6040518115909202916000818181858888f193505050501580156106f0573d6000803e3d6000fd5b506106fb8183610abf565b83600401600082825461070e9190610ad6565b9091555050600483015460001261075b5760018360050160008282546107349190610b15565b909155505082546001600160a01b03166000908152600460205260409020805460ff191690555b8254604080516001600160a01b0390921682526020820184905233917f188177a91f9b084dadc3c86215ff29aa75ddaf05ed75983c8c498c40989d58c9910160405180910390a250505050565b8280546107b490610a85565b90600052602060002090601f0160209004810192826107d6576000855561081c565b82601f106107ef57805160ff191683800117855561081c565b8280016001018555821561081c579182015b8281111561081c578251825591602001919060010190610801565b5061082892915061082c565b5090565b5b80821115610828576000815560010161082d565b60006020828403121561085357600080fd5b5035919050565b634e487b7160e01b600052604160045260246000fd5b6000806040838503121561088357600080fd5b82359150602083013567ffffffffffffffff808211156108a257600080fd5b818501915085601f8301126108b657600080fd5b8135818111156108c8576108c861085a565b604051601f8201601f19908116603f011681019083821181831017156108f0576108f061085a565b8160405282815288602084870101111561090957600080fd5b8260208601602083013760006020848301015280955050505050509250929050565b6000815180845260005b8181101561095157602081850181015186830182015201610935565b81811115610963576000602083870101525b50601f01601f19169290920160200192915050565b60018060a01b038716815285602082015260c06040820152600061099f60c083018761092b565b606083019590955250608081019290925260a0909101529392505050565b6000602082840312156109cf57600080fd5b81356001600160a01b03811681146109e657600080fd5b9392505050565b634e487b7160e01b600052601160045260246000fd5b600060018201610a1557610a156109ed565b5060010190565b838152826020820152606060408201526000610a3b606083018461092b565b95945050505050565b6000816000190483118215151615610a5e57610a5e6109ed565b500290565b600082610a8057634e487b7160e01b600052601260045260246000fd5b500490565b600181811c90821680610a9957607f821691505b602082108103610ab957634e487b7160e01b600052602260045260246000fd5b50919050565b600082821015610ad157610ad16109ed565b500390565b60008083128015600160ff1b850184121615610af457610af46109ed565b6001600160ff1b0384018313811615610b0f57610b0f6109ed565b50500390565b60008219821115610b2857610b286109ed565b50019056fea26469706673582212201209c1140ba31a59e79a1ab3e873cb238ca8075d539c8842bbf75c6c6ac9d9c964736f6c634300080e0033",
  "immutableReferences": {},
  "source": "pragma solidity ^0.8.0;\r\n\r\ncontract FundRaising {\r\n    // unique id for each fund raiser\r\n    uint public fundRaiserId;\r\n    // percentage of bank charges\r\n    uint public percentage;\r\n    // address to pay the bank charges\r\n    address payable public feeBank;\r\n    // fund raiser is an object with values: address(for payment of funds), votes(to sort fund raisers according to priority),\r\n    // purpose of raising the fund, and amount of fund left to be completed \r\n    struct FundRaiser{\r\n        address payable adress;\r\n        uint votes;\r\n        string purpose;\r\n        uint initialAmount;\r\n        int fundLeft;\r\n        uint projectsFunded;\r\n        mapping(address=>bool) allVoters;\r\n    }\r\n    // a mapping of the fund raisers id to the fund raisers object\r\n    mapping(uint=>FundRaiser) public fundRaisers;\r\n    // mapping address of the fund raiser to a boolean(exists or not)\r\n    mapping(address=>bool) public exists;\r\n    // look up id of a particular address that might have been added to fund raisers platform in the past\r\n    mapping(address=>uint) public lookUpId;\r\n    // events\r\n    event FundRaiserAdded(address indexed sender,uint id,uint fund,string purpose);\r\n    event Contributed(address indexed sender,address to,uint amount);\r\n    // constructor\r\n    constructor(uint percent){\r\n        // initializing bank charges and address during deployment\r\n        percentage=percent;\r\n        feeBank=payable(msg.sender);\r\n    }\r\n    // add a fund raiser to the platform (accepts purpose and fund as input)\r\n    function addFundRaiser(uint fund,string memory purpose)public{\r\n        // a particular fund raiser cannot raise multiple funds at a time\r\n        require(!exists[msg.sender],'Fund Raiser already exists');\r\n        uint id;\r\n        // if sender has never raised fund on the platform,\r\n        if (lookUpId[msg.sender]==0){\r\n            // increment and assign global fund raiser id\r\n            fundRaiserId++;\r\n            id=fundRaiserId;\r\n            // update the mapping to include new fund raiser\r\n            lookUpId[msg.sender]=id;\r\n        }else{\r\n            // else the id is the id of the fund raiser as at when he initially raised fund\r\n            // (this is to ensure credibility of a particular fund raiser)\r\n            id=lookUpId[msg.sender];\r\n        }\r\n        uint fundedProjects=fundRaisers[id].projectsFunded;\r\n        FundRaiser storage fundRaiser=fundRaisers[id];\r\n        fundRaiser.adress=payable(msg.sender);\r\n        fundRaiser.votes=0;\r\n        fundRaiser.purpose=purpose;\r\n        fundRaiser.initialAmount=fund;\r\n        fundRaiser.fundLeft=int(fund);\r\n        fundRaiser.projectsFunded=fundedProjects;\r\n        fundRaiser.allVoters;\r\n        // update 'exists' value to prevent same fund raiser from raising funds twice\r\n        exists[msg.sender]=true;\r\n        emit FundRaiserAdded(msg.sender,id,fund,purpose);\r\n    }\r\n    // vote a fund raiser to show priority\r\n    function vote(uint id)public{\r\n        FundRaiser storage votee=fundRaisers[id];\r\n        require(votee.allVoters[msg.sender]==false,'You cannot vote twice');\r\n        require(id<=fundRaiserId && exists[votee.adress],'Fund Raiser does not exist');\r\n        votee.votes++;\r\n        votee.allVoters[msg.sender]=true;\r\n    }\r\n    // contribute to a fund raiser\r\n    function contribute(uint id)payable public{\r\n        FundRaiser storage votee=fundRaisers[id];\r\n        // fund raiser must be available\r\n        require(exists[votee.adress],'This fund raiser does not exist');\r\n        // contribution must be greater then zero\r\n        require(msg.value>0,\"Contribution must be greater than zero\");\r\n        uint amount=msg.value;\r\n        // get the amount to be transfered to the fee bank\r\n        uint fee=calculateBankFee(amount);\r\n        // transfer to the bank and fund raiser\r\n        feeBank.transfer(fee);\r\n        votee.adress.transfer(amount-fee);\r\n\r\n        votee.fundLeft-=int(amount-fee);\r\n        // if fund already raised, remove fund raiser\r\n        if (votee.fundLeft<=0){\r\n            votee.projectsFunded+=1;\r\n            exists[votee.adress]=false;\r\n        }\r\n        emit Contributed(msg.sender,votee.adress,amount);\r\n    }\r\n    // calculate the bank fee\r\n    function calculateBankFee(uint amt)public view returns(uint){\r\n        return amt*percentage/100 ;\r\n    }\r\n}",
  "sourcePath": "C:\\Users\\DADA\\Desktop\\projects\\Fun-d-crowd\\src\\contracts\\FundRaising.sol",
  "compiler": {
    "name": "solc",
    "version": "0.8.14+commit.80d49f37.Emscripten.clang"
  },
  "schemaVersion": "3.4.7",
  "updatedAt": "2022-06-01T04:14:50.972Z",
  "networkType": "ethereum",
  "devdoc": {
    "kind": "dev",
    "methods": {},
    "version": 1
  },
  "userdoc": {
    "kind": "user",
    "methods": {},
    "version": 1
  }
}